:020000040800F2
:100000000000012039020008890200088902000866
:100010008902000889020008890200080000000027
:10002000000000000000000000000000890200083D
:100030008902000800000000890200088902000807
:100040008902000889020008890200088902000864
:100050008902000889020008890200088902000854
:100060008902000889020008890200088902000844
:100070008902000889020008890200088902000834
:1000800089020008890200088902000800000000B7
:1000900000000000000000000000000089020008CD
:1000A0008902000889020008890200088902000804
:1000B00089020008890200088902000889020008F4
:1000C00089020008890200088902000889020008E4
:1000D0008902000889020008890200080000000067
:1000E0008902000889020008890200080000000057
:1000F000000000000000000000000000890200086D
:100100000000000089020008890200088902000836
:1001100000000000000000000000000000000000DF
:100120008902000889020008890200088902000883
:10013000890200080000000000000000000000002C
:10014000000000000000000000000000890200081C
:100150008902000889020008890200088902000853
:100160008902000889020008000000000000000069
:10017000000000000000000000000000000000007F
:1001800000000000890200080000000000000000DC
:1001900089020008044B05481B1A062B02D9044BA0
:1001A00003B11847704700BF6304002060040020BB
:1001B0000000000005490648091A891001EBD171B9
:1001C000491002D0034B03B1184770476004002068
:1001D000600400200000000010B5064C237843B9ED
:1001E000FFF7D8FF044B13B10448AFF3008001239D
:1001F000237010BD600400200000000000160008FD
:1002000008B5084B1BB108490848AFF300800848FF
:10021000036813B9BDE80840CCE7064B002BF9D0C2
:100220009847F7E70000000064040020001600086B
:100230005C04002000000000DFF834D0002103E05F
:100240000C4B5B58435004310B480C4B42189A42FC
:10025000F6D30B4A02E0002342F8043B094B9A42D2
:10026000F9D300F04FFD01F017F901F0B1F8704734
:10027000000001200016000800000020600400209B
:100280006004002080040020FEE7000080B400AF7E
:10029000104A104B1B6843F0010313600D4B002202
:1002A0009A600C4A0B4B1B6823F0847323F4803351
:1002B0001360084B084A5A60064A064B1B6823F431
:1002C00080231360034B0022DA6000BFBD4680BC70
:1002D000704700BF003802401030002480B483B063
:1002E00000AF0346FB71054B00221A70034AFB79ED
:1002F000137000BF0C37BD4680BC70470238024007
:1003000080B582B000AF00233B600023FB71002367
:10031000BB71312000F084FC0346BB713B680133A4
:100320003B603B68B3F5A06F02D0BB79002BF0D0E7
:10033000312000F075FC0346002B02D00123FB7135
:1003400001E00023FB71FB7918460837BD4680BDEC
:1003500080B485B000AF0346FB710023FB600A4BFD
:100360001B68FB60FB6823F0F803FB60FB79DB0094
:10037000FA681343FB60044AFB68136000BF14373C
:10038000BD4680BC704700BF0038024080B483B0D7
:1003900000AF0346FB71044AFB79136000BF0C37C2
:1003A000BD4680BC704700BF0000474280B483B0A8
:1003B00000AF0346FB710C4B00221A700A4B00225F
:1003C0001A70FB79012B02D0042B04D007E0064BF6
:1003D00001221A7003E0044B05221A7000BF00BF0F
:1003E0000C37BD4680BC70477038024080B483B083
:1003F00000AF0346FB71044AFB79136000BF0C3762
:10040000BD4680BC704700BF800E474280B485B0B7
:1004100000AFF860B9607A603B600A497B689A0176
:10042000BB681A433B685B08013B1B041A43FB682B
:100430001A43BB691B0613434B6000BF1437BD460C
:1004400080BC70470038024080B483B000AF0346E0
:10045000FB71044AFB79136000BF0C37BD4680BCBA
:10046000704700BF6000474280B483B000AF78603F
:10047000396006497B689A013B681B071343C1F842
:10048000843000BF0C37BD4680BC70470038024046
:1004900080B483B000AF0346FB71044AFB7913605C
:1004A00000BF0C37BD4680BC704700BF68004742A4
:1004B00080B483B000AF0346FB71044AFB7913603C
:1004C00000BF0C37BD4680BC704700BF4C004742A0
:1004D00080B485B000AF786039600023FB600A4BC0
:1004E0009B68FB60FB6823F0EC63FB607A683B6809
:1004F0001343FA681343FB60034AFB68936000BF31
:100500001437BD4680BC70470038024080B485B0C7
:1005100000AF786039600023FB600A4B9B68FB608A
:10052000FB6823F07843FB607A683B681343FA6802
:100530001343FB60034AFB68936000BF1437BD465A
:1005400080BC70470038024080B485B000AF78604E
:100550000023FB60094B9B68FB60FB6823F00303EF
:10056000FB60FA687B681343FB60044AFB68936096
:1005700000BF1437BD4680BC704700BF0038024042
:1005800080B400AF044B9B68DBB203F00C03DBB21A
:100590001846BD4680BC70470038024080B485B024
:1005A00000AF78600023FB60094B9B68FB60FB6831
:1005B00023F0F003FB60FA687B681343FB60044A96
:1005C000FB68936000BF1437BD4680BC704700BF16
:1005D0000038024080B485B000AF78600023FB6033
:1005E000094B9B68FB60FB6823F4E053FB60FA68EF
:1005F0007B681343FB60044AFB68936000BF1437B9
:10060000BD4680BC704700BF0038024080B485B052
:1006100000AF78600023FB60094B9B68FB60FB68C0
:1006200023F46043FB607B68DB00FA681343FB60E4
:10063000034AFB68936000BF1437BD4680BC704717
:100640000038024080B489B000AF78600023BB61FD
:1006500000237B610023FB6102233B610023FB60DD
:100660000223BB60484B9B6803F00C03BB61BB6972
:10067000042B07D0082B09D0002B3FD17B68434ABD
:100680001A603FE07B68424A1A603BE03E4B5B6881
:1006900003F480039B0DFB603B4B5B6803F03F035F
:1006A000BB60FB68002B0DD0394ABB68B2FBF3F28C
:1006B000354B596847F6C0730B409B0903FB02F3A7
:1006C000FB610CE0314ABB68B2FBF3F22E4B596878
:1006D00047F6C0730B409B0903FB02F3FB612A4BF7
:1006E0005B6803F440331B0C01335B003B61FA6928
:1006F0003B69B2FBF3F27B681A6003E07B68234A34
:100700001A6000BF204B9B6803F0F003BB61BB691C
:100710001B09BB611F4ABB6913441B78DBB27B61B9
:100720007B681A687B69DA407B685A60164B9B6865
:1007300003F4E053BB61BB699B0ABB61154ABB690B
:1007400013441B78DBB27B617B685A687B69DA40B3
:100750007B689A600C4B9B6803F46043BB61BB6988
:100760005B0BBB610B4ABB6913441B78DBB27B613B
:100770007B685A687B69DA407B68DA6000BF24379F
:10078000BD4680BC704700BF003802400024F40022
:1007900040787D010000002080B485B000AF786013
:1007A0000023FB607B6803F44073B3F5407F11D1F5
:1007B0000F4B9B68FB60FB6823F4F813FB607B68BE
:1007C00023F0704323F44073FA681343FB60084A34
:1007D000FB6893600649064B1A6F7B68C3F30B03F3
:1007E00013430B6700BF1437BD4680BC704700BF82
:1007F0000038024080B483B000AF0346FB71044A66
:10080000FB79136000BF0C37BD4680BC704700BF4A
:100810003C0E474280B483B000AF0346FB71044AEC
:10082000FB79136000BF0C37BD4680BC704700BF2A
:10083000400E474280B483B000AF7860034A7B68C3
:10084000136000BF0C37BD4680BC70475C01474257
:1008500080B483B000AF78600B46FB70FB78002B50
:1008600006D00949084B1A6B7B6813430B6306E0FB
:100870000549054B1A6B7B68DB4313400B6300BFD4
:100880000C37BD4680BC70470038024080B483B04E
:1008900000AF78600B46FB70FB78002B06D009494F
:1008A000084B5A6B7B6813434B6306E00549054BC5
:1008B0005A6B7B68DB4313404B6300BF0C37BD466C
:1008C00080BC70470038024080B483B000AF7860CD
:1008D0000B46FB70FB78002B06D00949084B9A6B3E
:1008E0007B6813438B6306E00549054B9A6B7B6875
:1008F000DB4313408B6300BF0C37BD4680BC7047A1
:100900000038024080B483B000AF78600B46FB70C3
:10091000FB78002B06D00949084B1A6C7B681343FF
:100920000B6406E00549054B1A6C7B68DB431340FA
:100930000B6400BF0C37BD4680BC704700380240D6
:1009400080B483B000AF78600B46FB70FB78002B5F
:1009500006D00949084B5A6C7B6813434B6406E088
:100960000549054B5A6C7B68DB4313404B6400BF61
:100970000C37BD4680BC70470038024080B483B05D
:1009800000AF78600B46FB70FB78002B06D009495E
:10099000084B1A697B6813430B6106E00549054B58
:1009A0001A697B68DB4313400B6100BF0C37BD46FF
:1009B00080BC70470038024080B483B000AF7860DC
:1009C0000B46FB70FB78002B06D00949084B5A698F
:1009D0007B6813434B6106E00549054B5A697B6808
:1009E000DB4313404B6100BF0C37BD4680BC7047F2
:1009F0000038024080B483B000AF78600B46FB70D3
:100A0000FB78002B06D00949084B9A697B68134391
:100A10008B6106E00549054B9A697B68DB4313400F
:100A20008B6100BF0C37BD4680BC70470038024068
:100A300080B483B000AF78600B46FB70FB78002B6E
:100A400006D00949084B1A6A7B6813430B6206E01B
:100A50000549054B1A6A7B68DB4313400B6200BFF4
:100A60000C37BD4680BC70470038024080B483B06C
:100A700000AF78600B46FB70FB78002B06D009496D
:100A8000084B5A6A7B6813434B6206E00549054BE5
:100A90005A6A7B68DB4313404B6200BF0C37BD468C
:100AA00080BC70470038024080B483B000AF7860EB
:100AB0000B46FB70FB78002B06D00949084B1A6DDA
:100AC0007B6813430B6506E00549054B1A6D7B688F
:100AD000DB4313400B6500BF0C37BD4680BC70473D
:100AE0000038024080B483B000AF78600B46FB70E2
:100AF000FB78002B06D00949084B5A6D7B681343DD
:100B00004B6506E00549054B5A6D7B68DB43134096
:100B10004B6500BF0C37BD4680BC704700380240B3
:100B200080B483B000AF78600B46FB70FB78002B7D
:100B300006D00949084B9A6D7B6813438B6506E024
:100B40000549054B9A6D7B68DB4313408B6500BFFD
:100B50000C37BD4680BC70470038024080B483B07B
:100B600000AF78600B46FB70FB78002B06D009497C
:100B7000084B1A6E7B6813430B6606E00549054B6C
:100B80001A6E7B68DB4313400B6600BF0C37BD4613
:100B900080BC70470038024080B483B000AF7860FA
:100BA0000B46FB70FB78002B06D00949084B5A6EA8
:100BB0007B6813434B6606E00549054B5A6E7B681C
:100BC000DB4313404B6600BF0C37BD4680BC70470B
:100BD0000038024080B483B000AF03460A46FB7180
:100BE0001346BB71BB79002B08D00C490B4B1B780B
:100BF000DAB2FB791343DBB20B7009E00749074B0C
:100C00001B78DAB2FB79DB43DBB21340DBB20B704B
:100C100000BF0C37BD4680BC704700BF0D38024096
:100C200080B487B000AF0346FB710023FB60002354
:100C30007B610023FB74FB795B09DBB2FB60FB6823
:100C4000012B03D1124B1B687B6109E0FB68022B6F
:100C500003D10F4B1B6F7B6102E00D4B5B6F7B6120
:100C6000FB7903F01F03FB607A69FB6822FA03F348
:100C700003F00103002B02D00123FB7401E00023E9
:100C8000FB74FB7C18461C37BD4680BC704700BF18
:100C90000038024080B400AF044A044B5B6F43F05D
:100CA0008073536700BFBD4680BC70470038024068
:100CB00080B485B000AF0346FB710023FB73084B83
:100CC000DA68FB791340002B02D00123FB7301E0AB
:100CD0000023FB73FB7B18461437BD4680BC70476E
:100CE0000038024080B483B000AF0346FB71044A71
:100CF000FB79137000BF0C37BD4680BC704700BF46
:100D00000E38024080B500AF124A124B1B6843F008
:100D1000010313600F4B00229A600E4A0D4B1B68B3
:100D200023F0847323F4803313600A4B0A4A5A6019
:100D3000084A084B1B6823F480231360054B0022EC
:100D4000DA6000F089F8054B4FF000629A6000BF4E
:100D500080BD00BF003802401030002400ED00E0EC
:100D600080B487B000AF00233B6100237B61022386
:100D7000FB600023BB6002237B60324B9B6803F067
:100D80000C033B613B69042B07D0082B09D0002BD7
:100D90003FD12D4B2D4A1A603FE02B4B2C4A1A6055
:100DA0003BE0284B5B6803F480039B0DBB60254B45
:100DB0005B6803F03F037B60BB68002B0DD0244AC7
:100DC0007B68B2FBF3F21F4B596847F6C0730B40C8
:100DD0009B0903FB02F37B610CE01C4A7B68B2FBBE
:100DE000F3F2184B596847F6C0730B409B0903FB9D
:100DF00002F37B61134B5B6803F440331B0C01333C
:100E00005B00FB607A69FB68B2FBF3F30E4A136088
:100E100003E00D4B0D4A1A6000BF0A4B9B6803F0BC
:100E2000F0031B090B4AD35CDBB23B61064B1A682B
:100E30003B6922FA03F3044A136000BF1C37BD4626
:100E400080BC704700380240100000200024F400ED
:100E500040787D011400002080B483B000AF0023EF
:100E60007B6000233B60354A344B1B6843F480337E
:100E70001360324B1B6803F400333B607B68013323
:100E80007B603B68002B03D17B68B3F5A06FF0D18A
:100E90002A4B1B6803F40033002B02D001233B6074
:100EA00001E000233B603B68012B42D1234A234BE6
:100EB0001B6C43F080531364214A214B1B6843F49D
:100EC000804313601D4A1D4B9B6893601B4A1B4B5C
:100ED0009B6843F400439360184A184B9B6843F4A3
:100EE000A0539360154B174A5A60144A134B1B6862
:100EF00043F08073136000BF104B1B6803F0007356
:100F0000002BF9D0104B40F205621A600B4A0B4BD4
:100F10009B6823F003039360084A084B9B6843F0E7
:100F20000203936000BF054B9B6803F00C03082B82
:100F3000F9D100BF0C37BD4680BC70470038024075
:100F40000070004008544107003C024080B582B068
:100F500000AF78607B683C4A934208D101210120B0
:100F6000FFF70CFD00210120FFF708FD68E07B681A
:100F7000364A934208D101210220FFF7FFFC0021ED
:100F80000220FFF7FBFC5BE07B68314A934208D10B
:100F900001210420FFF7F2FC00210420FFF7EEFC02
:100FA0004EE07B682B4A934208D101210820FFF7CD
:100FB000E5FC00210820FFF7E1FC41E07B68264AC0
:100FC000934208D101211020FFF7D8FC0021102006
:100FD000FFF7D4FC34E07B68204A934208D101211A
:100FE0002020FFF7CBFC00212020FFF7C7FC27E0E3
:100FF0007B681B4A934208D101214020FFF7BEFCC9
:1010000000214020FFF7BAFC1AE07B68154A9342A2
:1010100008D101218020FFF7B1FC00218020FFF7DB
:10102000ADFC0DE07B68104A934209D101214FF4D9
:101030008070FFF7A3FC00214FF48070FFF79EFC47
:1010400000BF0837BD4680BD0000024000040240DA
:1010500000080240000C0240001002400014024050
:1010600000180240001C02400020024080B487B0FB
:1010700000AF7860396000237B6100233B6100236F
:10108000FB6000237B6176E001227B6902FA03F3B7
:101090003B613B681A683B691340FB60FA683B6937
:1010A0009A4265D17B681A687B695B00032101FA6B
:1010B00003F3DB431A407B681A607B681A683B685D
:1010C0001B7919467B695B0001FA03F31A437B68BD
:1010D0001A603B681B79012B03D03B681B79022BFC
:1010E0002ED17B689A687B695B00032101FA03F3C8
:1010F000DB431A407B689A607B689A683B685B793F
:1011000019467B695B0001FA03F31A437B689A6016
:101110007B685A687B699BB2012101FA03F3DB43C8
:101120001A407B685A607B685A683B689B7919460D
:101130007B699BB201FA03F39BB21A437B685A6046
:101140007B68DA687B699BB25B00032101FA03F3D9
:10115000DB431A407B68DA607B68DA683B68DB79DE
:1011600019467B695B0001FA03F31A437B68DA6076
:101170007B6901337B617B690F2B85D900BF1C37ED
:10118000BD4680BC704700BF80B483B000AF7860BC
:101190007B684FF6FF721A607B6800221A717B68C9
:1011A00000225A717B6800229A717B680022DA71F2
:1011B00000BF0C37BD4680BC704700BF80B485B00F
:1011C00000AF78600B467B804FF48033FB607A88F9
:1011D000FB681343FB60FA687B68DA617A887B6896
:1011E000DA61FA687B68DA617B68DB69FB607B68DF
:1011F000DB69FB6000BF1437BD4680BC704700BF91
:1012000080B485B000AF78600B467B800023FB7311
:101210007B681A697B881340002B02D00123FB7383
:1012200001E00023FB73FB7B18461437BD4680BCEE
:10123000704700BF80B483B000AF78607B681B69E3
:101240009BB218460C37BD4680BC704780B485B051
:1012500000AF78600B467B800023FB737B685A6984
:101260007B881340002B02D00123FB7301E0002395
:10127000FB73FB7B18461437BD4680BC704700BF2C
:1012800080B483B000AF78607B685B699BB218461E
:101290000C37BD4680BC704780B483B000AF786027
:1012A0000B467B807B687A881A8300BF0C37BD466B
:1012B00080BC704780B483B000AF78600B467B8001
:1012C0007B687A885A8300BF0C37BD4680BC704764
:1012D00080B483B000AF78600B467B8013467B7090
:1012E0007B78002B03D07B687A881A8302E07B68C6
:1012F0007A885A8300BF0C37BD4680BC704700BF58
:1013000080B483B000AF78600B467B807A887B68BE
:101310005A6100BF0C37BD4680BC704780B483B0B3
:1013200000AF78600B467B807B685A697B885A40A7
:101330007B685A6100BF0C37BD4680BC704700BF58
:1013400080B485B000AF78600B467B8013467B701D
:101350000023FB600023BB607A787B8803F00703DF
:101360009B0002FA03F3FB607B88DB089BB2184604
:101370007B88DB089BB21A467B68083253F8222030
:101380007B8803F007039B000F2101FA03F3DB4383
:1013900002EA03017B6800F1080243F822107B880F
:1013A000DB089BB21A467B68083253F82220FB68A0
:1013B0001343BB607B88DB089BB21A467B6808320C
:1013C000B96843F8221000BF1437BD4680BC70478F
:1013D00080B500AF00F004F800F024F8FCE700BF8F
:1013E00080B582B000AF01210820FFF731FA3B46FB
:1013F0001846FFF7C9FE01233B714FF470433B6071
:101400003B4619460648FFF731FE4FF47043194634
:101410000348FFF741FF00BF0837BD4680BD00BF4E
:10142000000C024080B500AF0D4B1B6801330C4A25
:1014300013604FF4704319460A48FFF73BFF084B0F
:101440001B6803F00303084A32F8133019460548B5
:10145000FFF722FFFA2000F009F800BF80BD00BFAF
:101460007C040020000C0240F015000880B483B01A
:1014700000AF78607B684FF4526202FB03F37B603D
:1014800000E000BF7B685A1E7A60002BF9D100BFD4
:101490000C37BD4680BC704770B50F4E0F4D761BA4
:1014A000B61018BF002405D0013455F8043B984706
:1014B000A642F9D10A4E0B4D761B00F08BF8B61000
:1014C00018BF002406D0013455F8043B9847A642C3
:1014D000F9D170BD70BD00BF500400205004002041
:1014E0005804002050040020024B13B1024800F0C1
:1014F00005B87047000000000915000800230146E8
:101500001A46184600F014B838B5074D074C2C1B86
:10151000A41005D0013C55F8043D9847002CF9D1A2
:10152000BDE8384000F05CB85C040020580400209E
:101530002DE9F047254C2568D5F8484106468846F0
:1015400092469946C4B360681F2817DC431C76B1E5
:1015500004EB80050122C5F888A0D4F888118240E8
:101560001143022EC4F88811C5F808911ED002302C
:10157000636044F820800020BDE8F087144B03B37B
:101580004FF4C870AFF300800446D0B1D5F84831AD
:10159000002780E88800C5F8484138460123C4F890
:1015A0008871C4F88C71002EE1D0D1E7D4F88C1189
:1015B0000A43C4F88C21DAE705F5A674C5F848415A
:1015C000C1E74FF0FF30BDE8F08700BFFC15000811
:1015D00000000000F8B500BFF8BC08BC9E4670478C
:1015E000F8B500BFF8BC08BC9E46704700F000008C
:1015F0000010002000400080430000002800002070
:1016000000000000010203040102030406070809A8
:10161000007A030A00000000000000000102030439
:101620000607080900000000000000001403002065
:101630007C030020E4030020000000000000000004
:10164000000000000000000000000000000000009A
:10165000000000000000000000000000F815000875
:10166000000000000000000000000000000000007A
:10167000000000000000000000000000000000006A
:10168000000000000000000000000000000000005A
:10169000000000000000000000000000000000004A
:1016A000000000000000000000000000000000003A
:1016B000000000000000000000000000000000002A
:1016C000000000000000000000000000000000001A
:1016D00001000000000000000E33CDAB34126DE6B7
:1016E000ECDE05000B000000000000000000000020
:1016F00000000000000000000000000000000000EA
:1017000000000000000000000000000000000000D9
:1017100000000000000000000000000000000000C9
:1017200000000000000000000000000000000000B9
:101A5000E914000801020008D90100080000000094
:0400000508000000EF
:00000001FF
